{
  "abi": [
    {
      "inputs": [
        {
          "components": [
            {
              "internalType": "uint224",
              "name": "_x",
              "type": "uint224"
            }
          ],
          "internalType": "struct FixedPoint.uq112x112",
          "name": "self",
          "type": "tuple"
        }
      ],
      "name": "decode",
      "outputs": [
        {
          "internalType": "uint112",
          "name": "",
          "type": "uint112"
        }
      ],
      "stateMutability": "pure",
      "type": "function"
    },
    {
      "inputs": [
        {
          "components": [
            {
              "internalType": "uint256",
              "name": "_x",
              "type": "uint256"
            }
          ],
          "internalType": "struct FixedPoint.uq144x112",
          "name": "self",
          "type": "tuple"
        }
      ],
      "name": "decode144",
      "outputs": [
        {
          "internalType": "uint144",
          "name": "",
          "type": "uint144"
        }
      ],
      "stateMutability": "pure",
      "type": "function"
    },
    {
      "inputs": [
        {
          "components": [
            {
              "internalType": "uint224",
              "name": "_x",
              "type": "uint224"
            }
          ],
          "internalType": "struct FixedPoint.uq112x112",
          "name": "self",
          "type": "tuple"
        },
        {
          "internalType": "uint112",
          "name": "y",
          "type": "uint112"
        }
      ],
      "name": "div",
      "outputs": [
        {
          "components": [
            {
              "internalType": "uint224",
              "name": "_x",
              "type": "uint224"
            }
          ],
          "internalType": "struct FixedPoint.uq112x112",
          "name": "",
          "type": "tuple"
        }
      ],
      "stateMutability": "pure",
      "type": "function"
    },
    {
      "inputs": [
        {
          "internalType": "uint112",
          "name": "x",
          "type": "uint112"
        }
      ],
      "name": "encode",
      "outputs": [
        {
          "components": [
            {
              "internalType": "uint224",
              "name": "_x",
              "type": "uint224"
            }
          ],
          "internalType": "struct FixedPoint.uq112x112",
          "name": "",
          "type": "tuple"
        }
      ],
      "stateMutability": "pure",
      "type": "function"
    },
    {
      "inputs": [
        {
          "internalType": "uint144",
          "name": "x",
          "type": "uint144"
        }
      ],
      "name": "encode144",
      "outputs": [
        {
          "components": [
            {
              "internalType": "uint256",
              "name": "_x",
              "type": "uint256"
            }
          ],
          "internalType": "struct FixedPoint.uq144x112",
          "name": "",
          "type": "tuple"
        }
      ],
      "stateMutability": "pure",
      "type": "function"
    },
    {
      "inputs": [
        {
          "internalType": "uint112",
          "name": "numerator",
          "type": "uint112"
        },
        {
          "internalType": "uint112",
          "name": "denominator",
          "type": "uint112"
        }
      ],
      "name": "fraction",
      "outputs": [
        {
          "components": [
            {
              "internalType": "uint224",
              "name": "_x",
              "type": "uint224"
            }
          ],
          "internalType": "struct FixedPoint.uq112x112",
          "name": "",
          "type": "tuple"
        }
      ],
      "stateMutability": "pure",
      "type": "function"
    },
    {
      "inputs": [
        {
          "components": [
            {
              "internalType": "uint224",
              "name": "_x",
              "type": "uint224"
            }
          ],
          "internalType": "struct FixedPoint.uq112x112",
          "name": "self",
          "type": "tuple"
        },
        {
          "internalType": "uint256",
          "name": "y",
          "type": "uint256"
        }
      ],
      "name": "mul",
      "outputs": [
        {
          "components": [
            {
              "internalType": "uint256",
              "name": "_x",
              "type": "uint256"
            }
          ],
          "internalType": "struct FixedPoint.uq144x112",
          "name": "",
          "type": "tuple"
        }
      ],
      "stateMutability": "pure",
      "type": "function"
    },
    {
      "inputs": [
        {
          "components": [
            {
              "internalType": "uint224",
              "name": "_x",
              "type": "uint224"
            }
          ],
          "internalType": "struct FixedPoint.uq112x112",
          "name": "self",
          "type": "tuple"
        }
      ],
      "name": "reciprocal",
      "outputs": [
        {
          "components": [
            {
              "internalType": "uint224",
              "name": "_x",
              "type": "uint224"
            }
          ],
          "internalType": "struct FixedPoint.uq112x112",
          "name": "",
          "type": "tuple"
        }
      ],
      "stateMutability": "pure",
      "type": "function"
    },
    {
      "inputs": [
        {
          "components": [
            {
              "internalType": "uint224",
              "name": "_x",
              "type": "uint224"
            }
          ],
          "internalType": "struct FixedPoint.uq112x112",
          "name": "self",
          "type": "tuple"
        }
      ],
      "name": "sqrt",
      "outputs": [
        {
          "components": [
            {
              "internalType": "uint224",
              "name": "_x",
              "type": "uint224"
            }
          ],
          "internalType": "struct FixedPoint.uq112x112",
          "name": "",
          "type": "tuple"
        }
      ],
      "stateMutability": "pure",
      "type": "function"
    }
  ],
  "evm": {
    "bytecode": {
      "linkReferences": {},
      "object": "608060405234801561001057600080fd5b50610a0b806100206000396000f3fe608060405234801561001057600080fd5b50600436106100a35760003560e01c80634fd04a4011610076578063af35b7691161005b578063af35b7691461014a578063c814e3141461016a578063ca2d02991461017d576100a3565b80634fd04a401461010a5780635f9f4c3b1461012a576100a3565b80632da10c08146100a857806331f92b13146100d15780633f1626c8146100e45780634de4cf92146100f7575b600080fd5b6100bb6100b6366004610735565b610190565b6040516100c89190610942565b60405180910390f35b6100bb6100df36600461071a565b6101b9565b6100bb6100f236600461071a565b6101e0565b6100bb610105366004610822565b6101ff565b61011d61011836600461071a565b610211565b6040516100c89190610974565b61013d61013836600461071a565b61022a565b6040516100c8919061098f565b61015d610158366004610769565b610243565b6040516100c8919061096a565b61015d61017836600461083e565b610263565b6100bb61018b366004610807565b610274565b6101986106c0565b6101b06101aa36859003850185610793565b83610285565b90505b92915050565b6101c16106c0565b6101d86101d336849003840184610793565b61036b565b90505b919050565b6101e86106c0565b6101d86101fa36849003840184610793565b610444565b6102076106c0565b6101b083836104ac565b60006101d861022536849003840184610793565b610545565b60006101d861023e368490038401846107e2565b61055c565b61024b6106d2565b6101b061025d36859003850185610793565b83610563565b61026b6106d2565b6101d8826105f1565b61027c6106c0565b6101d882610632565b61028d6106c0565b6dffffffffffffffffffffffffffff82166102dd576040517f08c379a00000000000000000000000000000000000000000000000000000000081526004016102d49061090b565b60405180910390fd5b6040518060200160405280836dffffffffffffffffffffffffffff167bffffffffffffffffffffffffffffffffffffffffffffffffffffffff1685600001517bffffffffffffffffffffffffffffffffffffffffffffffffffffffff168161034157fe5b047bffffffffffffffffffffffffffffffffffffffffffffffffffffffff16815250905092915050565b6103736106c0565b81517bffffffffffffffffffffffffffffffffffffffffffffffffffffffff166103c9576040517f08c379a00000000000000000000000000000000000000000000000000000000081526004016102d490610877565b6040805160208101909152825181907bffffffffffffffffffffffffffffffffffffffffffffffffffffffff167c01000000000000000000000000000000000000000000000000000000008161041b57fe5b047bffffffffffffffffffffffffffffffffffffffffffffffffffffffff168152509050919050565b61044c6106c0565b6040518060200160405280603861048485600001517bffffffffffffffffffffffffffffffffffffffffffffffffffffffff1661066f565b901b7bffffffffffffffffffffffffffffffffffffffffffffffffffffffff16905292915050565b6104b46106c0565b6000826dffffffffffffffffffffffffffff16116104fe576040517f08c379a00000000000000000000000000000000000000000000000000000000081526004016102d49061090b565b6040805160208101909152806dffffffffffffffffffffffffffff84167bffffffffffffffffffffffffffff0000000000000000000000000000607087901b168161034157fe5b5160701c6dffffffffffffffffffffffffffff1690565b5160701c90565b61056b6106d2565b60008215806105a657505082517bffffffffffffffffffffffffffffffffffffffffffffffffffffffff16828102908382816105a357fe5b04145b6105dc576040517f08c379a00000000000000000000000000000000000000000000000000000000081526004016102d4906108ae565b60408051602081019091529081529392505050565b6105f96106d2565b50604080516020810190915260709190911b7fffffffffffffffffffffffffffffffffffff000000000000000000000000000016815290565b61063a6106c0565b50604080516020810190915260709190911b7bffffffffffffffffffffffffffff000000000000000000000000000016815290565b600060038211156106b2575080600160028204015b818110156106ac5780915060028182858161069b57fe5b0401816106a457fe5b049050610684565b506101db565b81156101db57506001919050565b60408051602081019091526000815290565b6040518060200160405280600081525090565b6000602082840312156106f6578081fd5b50919050565b80356dffffffffffffffffffffffffffff811681146101b357600080fd5b60006020828403121561072b578081fd5b6101b083836106e5565b60008060408385031215610747578081fd5b61075184846106e5565b915061076084602085016106fc565b90509250929050565b6000806040838503121561077b578182fd5b61078584846106e5565b946020939093013593505050565b6000602082840312156107a4578081fd5b6107ae60206109ae565b82357bffffffffffffffffffffffffffffffffffffffffffffffffffffffff811681146107d9578283fd5b81529392505050565b6000602082840312156107f3578081fd5b6107fd60206109ae565b9135825250919050565b600060208284031215610818578081fd5b6101b083836106fc565b60008060408385031215610834578182fd5b61075184846106fc565b60006020828403121561084f578081fd5b813571ffffffffffffffffffffffffffffffffffff81168114610870578182fd5b9392505050565b6020808252601b908201527f4669786564506f696e743a205a45524f5f5245434950524f43414c0000000000604082015260600190565b60208082526023908201527f4669786564506f696e743a204d554c5449504c49434154494f4e5f4f5645524660408201527f4c4f570000000000000000000000000000000000000000000000000000000000606082015260800190565b60208082526017908201527f4669786564506f696e743a204449565f42595f5a45524f000000000000000000604082015260600190565b90517bffffffffffffffffffffffffffffffffffffffffffffffffffffffff16815260200190565b9051815260200190565b6dffffffffffffffffffffffffffff91909116815260200190565b71ffffffffffffffffffffffffffffffffffff91909116815260200190565b60405181810167ffffffffffffffff811182821017156109cd57600080fd5b60405291905056fea2646970667358221220d0fd3736f65d76bf412620dc1bff1f349d6011a44dfa90c884d291f3363e4e1964736f6c634300060a0033",
      "opcodes": "PUSH1 0x80 PUSH1 0x40 MSTORE CALLVALUE DUP1 ISZERO PUSH2 0x10 JUMPI PUSH1 0x0 DUP1 REVERT JUMPDEST POP PUSH2 0xA0B DUP1 PUSH2 0x20 PUSH1 0x0 CODECOPY PUSH1 0x0 RETURN INVALID PUSH1 0x80 PUSH1 0x40 MSTORE CALLVALUE DUP1 ISZERO PUSH2 0x10 JUMPI PUSH1 0x0 DUP1 REVERT JUMPDEST POP PUSH1 0x4 CALLDATASIZE LT PUSH2 0xA3 JUMPI PUSH1 0x0 CALLDATALOAD PUSH1 0xE0 SHR DUP1 PUSH4 0x4FD04A40 GT PUSH2 0x76 JUMPI DUP1 PUSH4 0xAF35B769 GT PUSH2 0x5B JUMPI DUP1 PUSH4 0xAF35B769 EQ PUSH2 0x14A JUMPI DUP1 PUSH4 0xC814E314 EQ PUSH2 0x16A JUMPI DUP1 PUSH4 0xCA2D0299 EQ PUSH2 0x17D JUMPI PUSH2 0xA3 JUMP JUMPDEST DUP1 PUSH4 0x4FD04A40 EQ PUSH2 0x10A JUMPI DUP1 PUSH4 0x5F9F4C3B EQ PUSH2 0x12A JUMPI PUSH2 0xA3 JUMP JUMPDEST DUP1 PUSH4 0x2DA10C08 EQ PUSH2 0xA8 JUMPI DUP1 PUSH4 0x31F92B13 EQ PUSH2 0xD1 JUMPI DUP1 PUSH4 0x3F1626C8 EQ PUSH2 0xE4 JUMPI DUP1 PUSH4 0x4DE4CF92 EQ PUSH2 0xF7 JUMPI JUMPDEST PUSH1 0x0 DUP1 REVERT JUMPDEST PUSH2 0xBB PUSH2 0xB6 CALLDATASIZE PUSH1 0x4 PUSH2 0x735 JUMP JUMPDEST PUSH2 0x190 JUMP JUMPDEST PUSH1 0x40 MLOAD PUSH2 0xC8 SWAP2 SWAP1 PUSH2 0x942 JUMP JUMPDEST PUSH1 0x40 MLOAD DUP1 SWAP2 SUB SWAP1 RETURN JUMPDEST PUSH2 0xBB PUSH2 0xDF CALLDATASIZE PUSH1 0x4 PUSH2 0x71A JUMP JUMPDEST PUSH2 0x1B9 JUMP JUMPDEST PUSH2 0xBB PUSH2 0xF2 CALLDATASIZE PUSH1 0x4 PUSH2 0x71A JUMP JUMPDEST PUSH2 0x1E0 JUMP JUMPDEST PUSH2 0xBB PUSH2 0x105 CALLDATASIZE PUSH1 0x4 PUSH2 0x822 JUMP JUMPDEST PUSH2 0x1FF JUMP JUMPDEST PUSH2 0x11D PUSH2 0x118 CALLDATASIZE PUSH1 0x4 PUSH2 0x71A JUMP JUMPDEST PUSH2 0x211 JUMP JUMPDEST PUSH1 0x40 MLOAD PUSH2 0xC8 SWAP2 SWAP1 PUSH2 0x974 JUMP JUMPDEST PUSH2 0x13D PUSH2 0x138 CALLDATASIZE PUSH1 0x4 PUSH2 0x71A JUMP JUMPDEST PUSH2 0x22A JUMP JUMPDEST PUSH1 0x40 MLOAD PUSH2 0xC8 SWAP2 SWAP1 PUSH2 0x98F JUMP JUMPDEST PUSH2 0x15D PUSH2 0x158 CALLDATASIZE PUSH1 0x4 PUSH2 0x769 JUMP JUMPDEST PUSH2 0x243 JUMP JUMPDEST PUSH1 0x40 MLOAD PUSH2 0xC8 SWAP2 SWAP1 PUSH2 0x96A JUMP JUMPDEST PUSH2 0x15D PUSH2 0x178 CALLDATASIZE PUSH1 0x4 PUSH2 0x83E JUMP JUMPDEST PUSH2 0x263 JUMP JUMPDEST PUSH2 0xBB PUSH2 0x18B CALLDATASIZE PUSH1 0x4 PUSH2 0x807 JUMP JUMPDEST PUSH2 0x274 JUMP JUMPDEST PUSH2 0x198 PUSH2 0x6C0 JUMP JUMPDEST PUSH2 0x1B0 PUSH2 0x1AA CALLDATASIZE DUP6 SWAP1 SUB DUP6 ADD DUP6 PUSH2 0x793 JUMP JUMPDEST DUP4 PUSH2 0x285 JUMP JUMPDEST SWAP1 POP JUMPDEST SWAP3 SWAP2 POP POP JUMP JUMPDEST PUSH2 0x1C1 PUSH2 0x6C0 JUMP JUMPDEST PUSH2 0x1D8 PUSH2 0x1D3 CALLDATASIZE DUP5 SWAP1 SUB DUP5 ADD DUP5 PUSH2 0x793 JUMP JUMPDEST PUSH2 0x36B JUMP JUMPDEST SWAP1 POP JUMPDEST SWAP2 SWAP1 POP JUMP JUMPDEST PUSH2 0x1E8 PUSH2 0x6C0 JUMP JUMPDEST PUSH2 0x1D8 PUSH2 0x1FA CALLDATASIZE DUP5 SWAP1 SUB DUP5 ADD DUP5 PUSH2 0x793 JUMP JUMPDEST PUSH2 0x444 JUMP JUMPDEST PUSH2 0x207 PUSH2 0x6C0 JUMP JUMPDEST PUSH2 0x1B0 DUP4 DUP4 PUSH2 0x4AC JUMP JUMPDEST PUSH1 0x0 PUSH2 0x1D8 PUSH2 0x225 CALLDATASIZE DUP5 SWAP1 SUB DUP5 ADD DUP5 PUSH2 0x793 JUMP JUMPDEST PUSH2 0x545 JUMP JUMPDEST PUSH1 0x0 PUSH2 0x1D8 PUSH2 0x23E CALLDATASIZE DUP5 SWAP1 SUB DUP5 ADD DUP5 PUSH2 0x7E2 JUMP JUMPDEST PUSH2 0x55C JUMP JUMPDEST PUSH2 0x24B PUSH2 0x6D2 JUMP JUMPDEST PUSH2 0x1B0 PUSH2 0x25D CALLDATASIZE DUP6 SWAP1 SUB DUP6 ADD DUP6 PUSH2 0x793 JUMP JUMPDEST DUP4 PUSH2 0x563 JUMP JUMPDEST PUSH2 0x26B PUSH2 0x6D2 JUMP JUMPDEST PUSH2 0x1D8 DUP3 PUSH2 0x5F1 JUMP JUMPDEST PUSH2 0x27C PUSH2 0x6C0 JUMP JUMPDEST PUSH2 0x1D8 DUP3 PUSH2 0x632 JUMP JUMPDEST PUSH2 0x28D PUSH2 0x6C0 JUMP JUMPDEST PUSH14 0xFFFFFFFFFFFFFFFFFFFFFFFFFFFF DUP3 AND PUSH2 0x2DD JUMPI PUSH1 0x40 MLOAD PUSH32 0x8C379A000000000000000000000000000000000000000000000000000000000 DUP2 MSTORE PUSH1 0x4 ADD PUSH2 0x2D4 SWAP1 PUSH2 0x90B JUMP JUMPDEST PUSH1 0x40 MLOAD DUP1 SWAP2 SUB SWAP1 REVERT JUMPDEST PUSH1 0x40 MLOAD DUP1 PUSH1 0x20 ADD PUSH1 0x40 MSTORE DUP1 DUP4 PUSH14 0xFFFFFFFFFFFFFFFFFFFFFFFFFFFF AND PUSH28 0xFFFFFFFFFFFFFFFFFFFFFFFFFFFFFFFFFFFFFFFFFFFFFFFFFFFFFFFF AND DUP6 PUSH1 0x0 ADD MLOAD PUSH28 0xFFFFFFFFFFFFFFFFFFFFFFFFFFFFFFFFFFFFFFFFFFFFFFFFFFFFFFFF AND DUP2 PUSH2 0x341 JUMPI INVALID JUMPDEST DIV PUSH28 0xFFFFFFFFFFFFFFFFFFFFFFFFFFFFFFFFFFFFFFFFFFFFFFFFFFFFFFFF AND DUP2 MSTORE POP SWAP1 POP SWAP3 SWAP2 POP POP JUMP JUMPDEST PUSH2 0x373 PUSH2 0x6C0 JUMP JUMPDEST DUP2 MLOAD PUSH28 0xFFFFFFFFFFFFFFFFFFFFFFFFFFFFFFFFFFFFFFFFFFFFFFFFFFFFFFFF AND PUSH2 0x3C9 JUMPI PUSH1 0x40 MLOAD PUSH32 0x8C379A000000000000000000000000000000000000000000000000000000000 DUP2 MSTORE PUSH1 0x4 ADD PUSH2 0x2D4 SWAP1 PUSH2 0x877 JUMP JUMPDEST PUSH1 0x40 DUP1 MLOAD PUSH1 0x20 DUP2 ADD SWAP1 SWAP2 MSTORE DUP3 MLOAD DUP2 SWAP1 PUSH28 0xFFFFFFFFFFFFFFFFFFFFFFFFFFFFFFFFFFFFFFFFFFFFFFFFFFFFFFFF AND PUSH29 0x100000000000000000000000000000000000000000000000000000000 DUP2 PUSH2 0x41B JUMPI INVALID JUMPDEST DIV PUSH28 0xFFFFFFFFFFFFFFFFFFFFFFFFFFFFFFFFFFFFFFFFFFFFFFFFFFFFFFFF AND DUP2 MSTORE POP SWAP1 POP SWAP2 SWAP1 POP JUMP JUMPDEST PUSH2 0x44C PUSH2 0x6C0 JUMP JUMPDEST PUSH1 0x40 MLOAD DUP1 PUSH1 0x20 ADD PUSH1 0x40 MSTORE DUP1 PUSH1 0x38 PUSH2 0x484 DUP6 PUSH1 0x0 ADD MLOAD PUSH28 0xFFFFFFFFFFFFFFFFFFFFFFFFFFFFFFFFFFFFFFFFFFFFFFFFFFFFFFFF AND PUSH2 0x66F JUMP JUMPDEST SWAP1 SHL PUSH28 0xFFFFFFFFFFFFFFFFFFFFFFFFFFFFFFFFFFFFFFFFFFFFFFFFFFFFFFFF AND SWAP1 MSTORE SWAP3 SWAP2 POP POP JUMP JUMPDEST PUSH2 0x4B4 PUSH2 0x6C0 JUMP JUMPDEST PUSH1 0x0 DUP3 PUSH14 0xFFFFFFFFFFFFFFFFFFFFFFFFFFFF AND GT PUSH2 0x4FE JUMPI PUSH1 0x40 MLOAD PUSH32 0x8C379A000000000000000000000000000000000000000000000000000000000 DUP2 MSTORE PUSH1 0x4 ADD PUSH2 0x2D4 SWAP1 PUSH2 0x90B JUMP JUMPDEST PUSH1 0x40 DUP1 MLOAD PUSH1 0x20 DUP2 ADD SWAP1 SWAP2 MSTORE DUP1 PUSH14 0xFFFFFFFFFFFFFFFFFFFFFFFFFFFF DUP5 AND PUSH28 0xFFFFFFFFFFFFFFFFFFFFFFFFFFFF0000000000000000000000000000 PUSH1 0x70 DUP8 SWAP1 SHL AND DUP2 PUSH2 0x341 JUMPI INVALID JUMPDEST MLOAD PUSH1 0x70 SHR PUSH14 0xFFFFFFFFFFFFFFFFFFFFFFFFFFFF AND SWAP1 JUMP JUMPDEST MLOAD PUSH1 0x70 SHR SWAP1 JUMP JUMPDEST PUSH2 0x56B PUSH2 0x6D2 JUMP JUMPDEST PUSH1 0x0 DUP3 ISZERO DUP1 PUSH2 0x5A6 JUMPI POP POP DUP3 MLOAD PUSH28 0xFFFFFFFFFFFFFFFFFFFFFFFFFFFFFFFFFFFFFFFFFFFFFFFFFFFFFFFF AND DUP3 DUP2 MUL SWAP1 DUP4 DUP3 DUP2 PUSH2 0x5A3 JUMPI INVALID JUMPDEST DIV EQ JUMPDEST PUSH2 0x5DC JUMPI PUSH1 0x40 MLOAD PUSH32 0x8C379A000000000000000000000000000000000000000000000000000000000 DUP2 MSTORE PUSH1 0x4 ADD PUSH2 0x2D4 SWAP1 PUSH2 0x8AE JUMP JUMPDEST PUSH1 0x40 DUP1 MLOAD PUSH1 0x20 DUP2 ADD SWAP1 SWAP2 MSTORE SWAP1 DUP2 MSTORE SWAP4 SWAP3 POP POP POP JUMP JUMPDEST PUSH2 0x5F9 PUSH2 0x6D2 JUMP JUMPDEST POP PUSH1 0x40 DUP1 MLOAD PUSH1 0x20 DUP2 ADD SWAP1 SWAP2 MSTORE PUSH1 0x70 SWAP2 SWAP1 SWAP2 SHL PUSH32 0xFFFFFFFFFFFFFFFFFFFFFFFFFFFFFFFFFFFF0000000000000000000000000000 AND DUP2 MSTORE SWAP1 JUMP JUMPDEST PUSH2 0x63A PUSH2 0x6C0 JUMP JUMPDEST POP PUSH1 0x40 DUP1 MLOAD PUSH1 0x20 DUP2 ADD SWAP1 SWAP2 MSTORE PUSH1 0x70 SWAP2 SWAP1 SWAP2 SHL PUSH28 0xFFFFFFFFFFFFFFFFFFFFFFFFFFFF0000000000000000000000000000 AND DUP2 MSTORE SWAP1 JUMP JUMPDEST PUSH1 0x0 PUSH1 0x3 DUP3 GT ISZERO PUSH2 0x6B2 JUMPI POP DUP1 PUSH1 0x1 PUSH1 0x2 DUP3 DIV ADD JUMPDEST DUP2 DUP2 LT ISZERO PUSH2 0x6AC JUMPI DUP1 SWAP2 POP PUSH1 0x2 DUP2 DUP3 DUP6 DUP2 PUSH2 0x69B JUMPI INVALID JUMPDEST DIV ADD DUP2 PUSH2 0x6A4 JUMPI INVALID JUMPDEST DIV SWAP1 POP PUSH2 0x684 JUMP JUMPDEST POP PUSH2 0x1DB JUMP JUMPDEST DUP2 ISZERO PUSH2 0x1DB JUMPI POP PUSH1 0x1 SWAP2 SWAP1 POP JUMP JUMPDEST PUSH1 0x40 DUP1 MLOAD PUSH1 0x20 DUP2 ADD SWAP1 SWAP2 MSTORE PUSH1 0x0 DUP2 MSTORE SWAP1 JUMP JUMPDEST PUSH1 0x40 MLOAD DUP1 PUSH1 0x20 ADD PUSH1 0x40 MSTORE DUP1 PUSH1 0x0 DUP2 MSTORE POP SWAP1 JUMP JUMPDEST PUSH1 0x0 PUSH1 0x20 DUP3 DUP5 SUB SLT ISZERO PUSH2 0x6F6 JUMPI DUP1 DUP2 REVERT JUMPDEST POP SWAP2 SWAP1 POP JUMP JUMPDEST DUP1 CALLDATALOAD PUSH14 0xFFFFFFFFFFFFFFFFFFFFFFFFFFFF DUP2 AND DUP2 EQ PUSH2 0x1B3 JUMPI PUSH1 0x0 DUP1 REVERT JUMPDEST PUSH1 0x0 PUSH1 0x20 DUP3 DUP5 SUB SLT ISZERO PUSH2 0x72B JUMPI DUP1 DUP2 REVERT JUMPDEST PUSH2 0x1B0 DUP4 DUP4 PUSH2 0x6E5 JUMP JUMPDEST PUSH1 0x0 DUP1 PUSH1 0x40 DUP4 DUP6 SUB SLT ISZERO PUSH2 0x747 JUMPI DUP1 DUP2 REVERT JUMPDEST PUSH2 0x751 DUP5 DUP5 PUSH2 0x6E5 JUMP JUMPDEST SWAP2 POP PUSH2 0x760 DUP5 PUSH1 0x20 DUP6 ADD PUSH2 0x6FC JUMP JUMPDEST SWAP1 POP SWAP3 POP SWAP3 SWAP1 POP JUMP JUMPDEST PUSH1 0x0 DUP1 PUSH1 0x40 DUP4 DUP6 SUB SLT ISZERO PUSH2 0x77B JUMPI DUP2 DUP3 REVERT JUMPDEST PUSH2 0x785 DUP5 DUP5 PUSH2 0x6E5 JUMP JUMPDEST SWAP5 PUSH1 0x20 SWAP4 SWAP1 SWAP4 ADD CALLDATALOAD SWAP4 POP POP POP JUMP JUMPDEST PUSH1 0x0 PUSH1 0x20 DUP3 DUP5 SUB SLT ISZERO PUSH2 0x7A4 JUMPI DUP1 DUP2 REVERT JUMPDEST PUSH2 0x7AE PUSH1 0x20 PUSH2 0x9AE JUMP JUMPDEST DUP3 CALLDATALOAD PUSH28 0xFFFFFFFFFFFFFFFFFFFFFFFFFFFFFFFFFFFFFFFFFFFFFFFFFFFFFFFF DUP2 AND DUP2 EQ PUSH2 0x7D9 JUMPI DUP3 DUP4 REVERT JUMPDEST DUP2 MSTORE SWAP4 SWAP3 POP POP POP JUMP JUMPDEST PUSH1 0x0 PUSH1 0x20 DUP3 DUP5 SUB SLT ISZERO PUSH2 0x7F3 JUMPI DUP1 DUP2 REVERT JUMPDEST PUSH2 0x7FD PUSH1 0x20 PUSH2 0x9AE JUMP JUMPDEST SWAP2 CALLDATALOAD DUP3 MSTORE POP SWAP2 SWAP1 POP JUMP JUMPDEST PUSH1 0x0 PUSH1 0x20 DUP3 DUP5 SUB SLT ISZERO PUSH2 0x818 JUMPI DUP1 DUP2 REVERT JUMPDEST PUSH2 0x1B0 DUP4 DUP4 PUSH2 0x6FC JUMP JUMPDEST PUSH1 0x0 DUP1 PUSH1 0x40 DUP4 DUP6 SUB SLT ISZERO PUSH2 0x834 JUMPI DUP2 DUP3 REVERT JUMPDEST PUSH2 0x751 DUP5 DUP5 PUSH2 0x6FC JUMP JUMPDEST PUSH1 0x0 PUSH1 0x20 DUP3 DUP5 SUB SLT ISZERO PUSH2 0x84F JUMPI DUP1 DUP2 REVERT JUMPDEST DUP2 CALLDATALOAD PUSH18 0xFFFFFFFFFFFFFFFFFFFFFFFFFFFFFFFFFFFF DUP2 AND DUP2 EQ PUSH2 0x870 JUMPI DUP2 DUP3 REVERT JUMPDEST SWAP4 SWAP3 POP POP POP JUMP JUMPDEST PUSH1 0x20 DUP1 DUP3 MSTORE PUSH1 0x1B SWAP1 DUP3 ADD MSTORE PUSH32 0x4669786564506F696E743A205A45524F5F5245434950524F43414C0000000000 PUSH1 0x40 DUP3 ADD MSTORE PUSH1 0x60 ADD SWAP1 JUMP JUMPDEST PUSH1 0x20 DUP1 DUP3 MSTORE PUSH1 0x23 SWAP1 DUP3 ADD MSTORE PUSH32 0x4669786564506F696E743A204D554C5449504C49434154494F4E5F4F56455246 PUSH1 0x40 DUP3 ADD MSTORE PUSH32 0x4C4F570000000000000000000000000000000000000000000000000000000000 PUSH1 0x60 DUP3 ADD MSTORE PUSH1 0x80 ADD SWAP1 JUMP JUMPDEST PUSH1 0x20 DUP1 DUP3 MSTORE PUSH1 0x17 SWAP1 DUP3 ADD MSTORE PUSH32 0x4669786564506F696E743A204449565F42595F5A45524F000000000000000000 PUSH1 0x40 DUP3 ADD MSTORE PUSH1 0x60 ADD SWAP1 JUMP JUMPDEST SWAP1 MLOAD PUSH28 0xFFFFFFFFFFFFFFFFFFFFFFFFFFFFFFFFFFFFFFFFFFFFFFFFFFFFFFFF AND DUP2 MSTORE PUSH1 0x20 ADD SWAP1 JUMP JUMPDEST SWAP1 MLOAD DUP2 MSTORE PUSH1 0x20 ADD SWAP1 JUMP JUMPDEST PUSH14 0xFFFFFFFFFFFFFFFFFFFFFFFFFFFF SWAP2 SWAP1 SWAP2 AND DUP2 MSTORE PUSH1 0x20 ADD SWAP1 JUMP JUMPDEST PUSH18 0xFFFFFFFFFFFFFFFFFFFFFFFFFFFFFFFFFFFF SWAP2 SWAP1 SWAP2 AND DUP2 MSTORE PUSH1 0x20 ADD SWAP1 JUMP JUMPDEST PUSH1 0x40 MLOAD DUP2 DUP2 ADD PUSH8 0xFFFFFFFFFFFFFFFF DUP2 GT DUP3 DUP3 LT OR ISZERO PUSH2 0x9CD JUMPI PUSH1 0x0 DUP1 REVERT JUMPDEST PUSH1 0x40 MSTORE SWAP2 SWAP1 POP JUMP INVALID LOG2 PUSH5 0x6970667358 0x22 SLT KECCAK256 0xD0 REVERT CALLDATACOPY CALLDATASIZE 0xF6 0x5D PUSH23 0xBF412620DC1BFF1F349D6011A44DFA90C884D291F3363E 0x4E NOT PUSH5 0x736F6C6343 STOP MOD EXP STOP CALLER "
    }
  }
}