{
  "abi": [
    {
      "inputs": [
        {
          "internalType": "uint256",
          "name": "num",
          "type": "uint256"
        }
      ],
      "name": "sqrt",
      "outputs": [
        {
          "internalType": "uint256",
          "name": "",
          "type": "uint256"
        }
      ],
      "stateMutability": "pure",
      "type": "function"
    }
  ],
  "evm": {
    "bytecode": {
      "linkReferences": {},
      "object": "608060405234801561001057600080fd5b5060ea8061001f6000396000f3fe6080604052348015600f57600080fd5b506004361060285760003560e01c8063677342ce14602d575b600080fd5b604760048036036020811015604157600080fd5b50356059565b60408051918252519081900360200190f35b6000606282606a565b90505b919050565b6000600382111560a7575080600160028204015b8181101560a257809150600281828581609357fe5b040181609b57fe5b049050607e565b506065565b811560655750600191905056fea26469706673582212202452b60c61c4c9ae9c5dff144fb94903dac998122e910a816afc16e885489cc564736f6c634300060a0033",
      "opcodes": "PUSH1 0x80 PUSH1 0x40 MSTORE CALLVALUE DUP1 ISZERO PUSH2 0x10 JUMPI PUSH1 0x0 DUP1 REVERT JUMPDEST POP PUSH1 0xEA DUP1 PUSH2 0x1F PUSH1 0x0 CODECOPY PUSH1 0x0 RETURN INVALID PUSH1 0x80 PUSH1 0x40 MSTORE CALLVALUE DUP1 ISZERO PUSH1 0xF JUMPI PUSH1 0x0 DUP1 REVERT JUMPDEST POP PUSH1 0x4 CALLDATASIZE LT PUSH1 0x28 JUMPI PUSH1 0x0 CALLDATALOAD PUSH1 0xE0 SHR DUP1 PUSH4 0x677342CE EQ PUSH1 0x2D JUMPI JUMPDEST PUSH1 0x0 DUP1 REVERT JUMPDEST PUSH1 0x47 PUSH1 0x4 DUP1 CALLDATASIZE SUB PUSH1 0x20 DUP2 LT ISZERO PUSH1 0x41 JUMPI PUSH1 0x0 DUP1 REVERT JUMPDEST POP CALLDATALOAD PUSH1 0x59 JUMP JUMPDEST PUSH1 0x40 DUP1 MLOAD SWAP2 DUP3 MSTORE MLOAD SWAP1 DUP2 SWAP1 SUB PUSH1 0x20 ADD SWAP1 RETURN JUMPDEST PUSH1 0x0 PUSH1 0x62 DUP3 PUSH1 0x6A JUMP JUMPDEST SWAP1 POP JUMPDEST SWAP2 SWAP1 POP JUMP JUMPDEST PUSH1 0x0 PUSH1 0x3 DUP3 GT ISZERO PUSH1 0xA7 JUMPI POP DUP1 PUSH1 0x1 PUSH1 0x2 DUP3 DIV ADD JUMPDEST DUP2 DUP2 LT ISZERO PUSH1 0xA2 JUMPI DUP1 SWAP2 POP PUSH1 0x2 DUP2 DUP3 DUP6 DUP2 PUSH1 0x93 JUMPI INVALID JUMPDEST DIV ADD DUP2 PUSH1 0x9B JUMPI INVALID JUMPDEST DIV SWAP1 POP PUSH1 0x7E JUMP JUMPDEST POP PUSH1 0x65 JUMP JUMPDEST DUP2 ISZERO PUSH1 0x65 JUMPI POP PUSH1 0x1 SWAP2 SWAP1 POP JUMP INVALID LOG2 PUSH5 0x6970667358 0x22 SLT KECCAK256 0x24 MSTORE 0xB6 0xC PUSH2 0xC4C9 0xAE SWAP13 0x5D SELFDESTRUCT EQ 0x4F 0xB9 0x49 SUB 0xDA 0xC9 SWAP9 SLT 0x2E SWAP2 EXP DUP2 PUSH11 0xFC16E885489CC564736F6C PUSH4 0x4300060A STOP CALLER "
    }
  }
}